:020000040000FA
:020000002528B1
:100008007E1480310B1F10282100921D102820001B
:10001800921D1028F92723280B1F1A282100911D4B
:100028001A282000911D1A28FE2123280B1F232897
:100038002100911C23282000911C23284B277E1087
:1000480009002628F727EE00B7308400873085009E
:10005800CF308600003087000A30D427F001F10144
:10006800F201F301F401F501EB01EC01ED01A0301F
:100078008400003085002230DA277E1020002E2BE5
:10008800FA30D724200040082100CB0020003F0888
:100098002100CA0020003E082100C90020003D08B8
:1000A8002100C80004302000D3002100CB37CA0C3F
:1000B800C90CC80C2000D30B5928210020082000A7
:1000C800D300210021082000D400D501D601D3098E
:1000D800D409D509D609D30A0319D40A0319D50AAC
:1000E8000319D60A210048082000D7002100490832
:1000F8002000D80021004A082000D90021004B0820
:100108002000DA000430DB00DA37D90CD80CD70C21
:10011800DB0B88285708D3075808D43D5908D53D24
:100128005A08D63D5608A7005508A6005408A50049
:100138005308A400210020082000DC002100210829
:100148002000DD00DE01DF01DC09DD09DE09DF0951
:10015800DC0A0319DD0A0319DE0A0319DF0A210084
:1001680048082000E000210049082000E1002100A3
:100178004A082000E20021004B082000E300043078
:10018800E400E337E20CE10CE00CE40BC52860085E
:10019800DC076108DD3D6208DE3D6308DF3D5F087E
:1001A800A3005E08A2005D08A1005C08A0009F25CE
:1001B80020002008E5002108E6002208E7002308BF
:1001C800E8000C30E900E837E70CE60CE50CE90B31
:1001D800E72868082100C500200067082100C4003E
:1001E800200066082100C300200065082100C20025
:1001F80045082000A300210044082000A200210097
:1002080043082000A100210042082000A00021008E
:1002180024082000A400210025082000A500890D3D
:10022800893B8909A600A7009F2520002008D30044
:100238002108D4002208D5002308D6000E30D700A4
:10024800D637D50CD40CD30CD70B24292100200881
:100258002000D800210021082000D900DA01DB01A4
:100268000130D835D90DDA0DDB0D890B3529D809C0
:10027800D909DA09DB09D80A0319D90A0319DA0AEC
:100288000319DB0A210048082000DC002100490886
:100298002000DD0021004A082000DE0021004B0874
:1002A8002000DF000330E000DF37DE0CDD0CDC0C63
:1002B800E00B58295C08D8075D08D93D5E08DA3D8F
:1002C8005F08DB3D5B08A3005A08A2005908A1009B
:1002D8005808A000210022082000A40021002308BB
:1002E8002000A500890D893B8909A600A7009F2544
:1002F80020002008E1002108E2002208E30023088A
:10030800E4000B30E500E437E30CE20CE10CE50B0C
:1003180087296108D3076208D43D6308D53D64087E
:10032800D63D56082100AE00200055082100AD003A
:10033800200054082100AC00200053082100AB0025
:1003480080302000D3000030D4000030D5000030C9
:10035800D60021002E082000A30021002D0820002F
:10036800A20021002C082000A10021002B08200059
:10037800A0000030A7000030A6000030A50005301E
:10038800A4009F2520002008D3072108D43D220877
:10039800D53D2308D63D0830D700D637D50CD40C28
:1003A800D30CD70BD12954082100C70020005308CB
:1003B8002100C60005302000A6000030A70021005B
:1003C80047082000A100210046082000A0000930AD
:1003D800A2000030A300FD2620002108A900200863
:1003E800A8006A2520002608803ED1000C30273D51
:1003F800D2000800200091112400951F232B95138B
:10040800F3017008023E8600870101088600870113
:100418008101810AF00108002100A81808002708B6
:10042800F8007808F0002708860087010108F8001E
:100438007808F200270886008701413FF100033061
:10044800F8007808A7072708C23A031D2F2ABF30EB
:10045800F8007808A7002810270826060319A8140A
:10046800240016140230F8007808F300080024006D
:1004780096140230F8007808F30008002400161FCC
:100488004D2A0130F80078082100AA0704303427E3
:1004980008007508F9007408F800F936F80C7808AF
:1004A80024009100741C5D2A0B30F8007808F300D2
:1004B80008000330F8007808F30008002400161F2D
:1004C8006D2A0130F80078082100AA070430342783
:1004D800080096147508F9007408F8007908F800FF
:1004E800F90106307805FA0000307905FB00F03094
:1004F8007A04F40000307B04F50074142000EB014A
:10050800EB0A0230F8007808F300080020006B03BB
:1005180003199F2A710886008701403FF400413F74
:10052800F500710886008701433FED0071088600D9
:100538008701423FEC00740824009100741CA92A2A
:100548000530F8007808F30008000330F800780850
:10055800F30008002400161FBB2A0130F8007808B1
:100568002100AA072400161305303427080001309B
:100578002000EC026C0A031DD32A0430F800780826
:10058800F1070130F202031DCC2A0030342708009D
:10059800240096140230F8007808F30008002000C0
:1005A8006D08860087010108240091000130F800D9
:1005B80078082000ED0708002400161FED2A0130F6
:1005C800F80078082100AA070430342724001613FD
:1005D800080096150830F8007808F300080008307D
:1005E800F8007808F3002400961508002400110884
:1005F800F80020006D088600870178088100013026
:10060800F8007808ED070130EC020319122B2400DA
:1006180096120630F8007808F300152B2400961679
:1006280081272400161608000030342708000130FE
:10063800F80078082100AA07063034270800730854
:1006480084000C30040203181B2B8731A0300407E8
:1006580082000800E027192770272100B401B5019E
:10066800B6018B170B1722000E148E140E11D03002
:1006780091272000EA006A082100CE0058304E0673
:10068800031D502B3F302000EA006A08AE00F4300A
:100698009A26003A03195B2B04302000AE001A306A
:1006A800AF000F30EA006A08B0001924502BDE268C
:1006B8002100B401B501F0302000A0000730A100EE
:1006C800CB27F427210036080319742B4420200077
:1006D80052082100B500200051082100B400B601DD
:1006E80027303502103003193402031C9C2B0A30C2
:1006F8002000A6000030A700210035082000A9002E
:10070800210034082000A8006A25200027082100BD
:10071800CD00200026082100CC004D082000AF00A5
:1007280021004C082000AE00B001B00A1924662B45
:10073800210035082000AF00210034082000AE0059
:100748000230EA006A08B0001924662B2000B600BF
:100758002E08B1003108B900B701B80130083802D5
:10076800031DB82B2F083702031808003608B100FC
:100778003108B300BA01BB013C030319E12BA701FF
:10078800A70A7630A8000030A9003C30B100310833
:10079800AA0033307326023020003C060319CF2B01
:1007A8003C080319E12B0A303A063B040319E12BF4
:1007B8000130BA070030BB3DC02B3C08031D072C95
:1007C800BA01BB013C030319072CA701A70A76301D
:1007D800A8000030A9003C30B1003108AA0039084F
:1007E8004C26023020003C060319F52B3C0803195F
:1007F800072C0A303A063B040319072C0130BA07C4
:100808000030BB3DE62B3C03031D0C2CB201080055
:100818000130B1003108B9070130B1003108B6071D
:100828000130B7070030B83DB22B2000B301802C4F
:1008380022008E15342C22000E16342C22008E1223
:10084800342C22000E13342C20003308013A0319EB
:10085800222C033A03191F2C013A03191C2C252CAE
:100868000A302000A0000030A1002F08A3002E08A5
:10087800A200CF2520002008CF3E8600870101086E
:10088800B1003108B20030083306031D4F2C6E0842
:10089800B1003108B2043208FC250A302000A60055
:1008A8000030A7002F08A9002E08A8006A252000FC
:1008B8002708AF002608AE000030FC256F2C220068
:1008C8008E117B2C22000E127B2C22008E167B2C84
:1008D80022000E177B2C20003308013A0319692CDB
:1008E800033A0319662C013A0319632C6C2C013066
:1008F8002000B1003108B3070430330203180800A0
:10090800282C2000A30021002818C42C0230200025
:10091800A200210886008701220881002008A20081
:100928002100260A8600870120002208810023086A
:10093800A2002100260886008701200022088100E5
:100948002108A20021002608023E86008701200017
:10095800220881000330A20022082100A6072608E9
:10096800C23A031DBD2CBF302000A200220821007E
:10097800A600A81027082606031DCA2C2814CA2C6E
:1009880020002108860087018101810A20002108B2
:100998008600870102300106031D08007308031D45
:1009A800D22C911508002000CD0021002F0820002E
:1009B800CE00210030082000CF002100310820009F
:1009C800D0004E30C1004108AE000330AF00003007
:1009D800B0004D08AA2320005008C100C201C3017D
:1009E800C4014F08C500C601C701C8010830C53594
:1009F800C60DC70DC80D890BFB2C4E08C900CA01CE
:100A0800CB01CC011030C935CA0DCB0DCC0D890BEB
:100A1800072D4908C5044A08C6044B08C7044C08F2
:100A2800C80441084504BD0042084604BE00430806
:100A38004704BF0044084804C000080022008C0195
:100A48008D0180308E00373021008C00F0308D0011
:100A58008E0123008E0120308D0017308C00F0307D
:100A680024008D003F308C00FF308E00210095134C
:100A780025008C018D018E0100308B1B0130200078
:100A8800A0008B1355303C008F00AA308F000F1048
:100A98003D001C08E03911389C001E08E039103868
:100AA8009E003C002108E0390C38A1002008E039FC
:100AB8000E38A00055308F00AA308F000F14200088
:100AC800201C682D8B1708008B1308002000AC0130
:100AD800AD012608270403199A2DAB01AB0AA71B01
:100AE8007F2D0130A635A70D890B762D0130AA0080
:100AF8002A08AB07732D0130AC35AD0D890B802D5D
:100B080027082902031D8A2D26082802031C912D77
:100B18002608A8022708A93B2C140130A736A60CE2
:100B2800890B922D0130AB02031D7F2D2D08A700E4
:100B38002C08A600080000302000AB000030AA00F6
:100B48000030A9000030A800201CB22D2408A807F6
:100B58002508A93D2608AA3D2708AB3D0130A43544
:100B6800A50DA60DA70D890BB32D0130A336A20C38
:100B7800A10CA00C890BBA2D2308220421042004FF
:100B8800031DA82D2B08A3002A08A2002908A100EC
:100B98002808A00008002000200821040319F72DC8
:100BA800A501A50AA11BE22D0130A035A10D890BD5
:100BB800D92D0130A4002408A507D62D2108230229
:100BC800031DE82D20082202031CEE2D2008A20296
:100BD8002108A33B0130A136A00C890BEF2D013071
:100BE800A502031DE22D2308A1002208A000080089
:100BF8002000A10022000E102000A20108302202CD
:100C08000318212E0130A000220A0B2EA035890BD3
:100C18000A2E200821050319142E22000E15162E5F
:100C280022000E118E108E1401302000A000200822
:100C3800A20708302202031C062E22000E14080008
:100C48002000A6002308A5002208A400A435A50DAD
:100C58002608860087012408C03F2508C13F2608CA
:100C68008600870101308104413100308104210868
:100C7800A4002608023E8600870124088100200877
:100C8800A4002608033E8600870124088100080086
:100C98002000AD00210028186C2E20002D08AB0084
:100CA8002B08A0002708AC002C08A1002908A300E5
:100CB8002808A200B7302426B7302000AB002B0844
:100CC800A0002A08AC002C08A100013085240800E7
:100CD80020002A08860087018101810A0800200077
:100CE800AD0021002818932E20002D08AB002B08FA
:100CF800A0002708AC002C08A1002908A300280898
:100D0800A200BB30BE26BB302000AB002B08A000E1
:100D18002A08AC002C08A100013085240800200016
:100D28002A08860087018101810A08002000B10095
:100D38003108AF002F08B2002E08AF002F08B3000B
:100D48000230AF002F08A7007630A8000030A900B5
:100D58003430B0003008AA00323073260230200048
:100D680034060319B22E3408031DBC2E00300800C7
:100D7800003008002000A6002308A5002208A400CF
:100D8800A435A50D2608860087012408C03F25083C
:100D9800C13F2108A4002608023E860087012408D6
:100DA80081002008A4002608033E86008701240845
:100DB8008100080088305E2720003E082100A1003D
:100DC80020003D082100A0008A30C12720004408E7
:100DD8002100A300200043082100A2008C30C12775
:100DE800200044082100A500200043082100A40099
:100DF80008002000A401A501201C062F2208A40732
:100E08002308A53D0130A235A30D890B072F01301A
:100E1800A136A00C890B0C2F20082104031D002FDC
:100E28002508A1002408A0000800BF302000A00069
:100E380020082100A700BF302000A00020082100C2
:100E4800A600A8142810AA012400940128309500AF
:100E5800970103309200200091112100911508009C
:100E6800F700240016157008023E86008701010865
:100E78000319492F7708F6007008023E860087019B
:100E880001088600870176088100F3010800200028
:100E9800911001302100B2070030B33D1F303302FA
:100EA800403003193202031C0800AC272100B201AC
:100EB800B30108002000C0004130BF003F08AE0069
:100EC8000230AF000030B0004008AA2320004208DA
:100ED800BE004108BD000800033020009C0003301C
:100EE8009B009A01911021009114F8302000A00075
:100EF8000730A100CB27F42708000430F600760855
:100F0800F1070130F202031D8E2F0430F600760837
:100F1800F3000800F301F30A08002000BE003F3088
:100F2800BD003D08AE000130AF000030B0003E0803
:100F3800AA2320003F080800102A3B2A8A2AAE2A42
:100F4800182BE02AF32A182BFA2A1B2B422A622A8A
:100F5800210059085A04031908005A088A00590838
:100F68000A0087310800FC346034DA34F23466341D
:100F7800B6343E34E034FE34E6342000C600460879
:100F88005E2720003E08C4003D08C300080020007A
:100F980021082100DA00200020082100D9000800DB
:100FA800FE0012001E00FE0BD52F003464008001E5
:100FB8000131890BDB2F00342225E627EC2719277E
:100FC800702708006830210099009A0198010800EC
:100FD80016302100970008002100B601B60A080063
:0C0FE80020001C1508000134080008005F
:020000040001F9
:04000E00E4FFFFFE0E
:00000001FF
